{
  "contractName": "Community",
  "abi": [
    {
      "inputs": [
        {
          "internalType": "string",
          "name": "_name",
          "type": "string"
        },
        {
          "internalType": "string",
          "name": "_address",
          "type": "string"
        },
        {
          "internalType": "string",
          "name": "_president",
          "type": "string"
        },
        {
          "internalType": "string",
          "name": "_admin",
          "type": "string"
        },
        {
          "internalType": "uint256",
          "name": "_creationDate",
          "type": "uint256"
        }
      ],
      "stateMutability": "nonpayable",
      "type": "constructor"
    },
    {
      "inputs": [
        {
          "internalType": "address",
          "name": "owner",
          "type": "address"
        }
      ],
      "name": "OwnableInvalidOwner",
      "type": "error"
    },
    {
      "inputs": [
        {
          "internalType": "address",
          "name": "account",
          "type": "address"
        }
      ],
      "name": "OwnableUnauthorizedAccount",
      "type": "error"
    },
    {
      "anonymous": false,
      "inputs": [
        {
          "indexed": true,
          "internalType": "address",
          "name": "previousOwner",
          "type": "address"
        },
        {
          "indexed": true,
          "internalType": "address",
          "name": "newOwner",
          "type": "address"
        }
      ],
      "name": "OwnershipTransferred",
      "type": "event"
    },
    {
      "anonymous": false,
      "inputs": [
        {
          "indexed": false,
          "internalType": "uint256",
          "name": "proposalId",
          "type": "uint256"
        },
        {
          "indexed": false,
          "internalType": "string",
          "name": "description",
          "type": "string"
        }
      ],
      "name": "ProposalCreated",
      "type": "event"
    },
    {
      "anonymous": false,
      "inputs": [
        {
          "indexed": false,
          "internalType": "uint256",
          "name": "proposalId",
          "type": "uint256"
        }
      ],
      "name": "ProposalExecuted",
      "type": "event"
    },
    {
      "anonymous": false,
      "inputs": [
        {
          "indexed": false,
          "internalType": "uint256",
          "name": "proposalId",
          "type": "uint256"
        },
        {
          "indexed": false,
          "internalType": "address",
          "name": "voter",
          "type": "address"
        },
        {
          "indexed": false,
          "internalType": "uint256",
          "name": "votes",
          "type": "uint256"
        }
      ],
      "name": "VoteReceived",
      "type": "event"
    },
    {
      "inputs": [],
      "name": "adminName",
      "outputs": [
        {
          "internalType": "string",
          "name": "",
          "type": "string"
        }
      ],
      "stateMutability": "view",
      "type": "function"
    },
    {
      "inputs": [],
      "name": "communityAddress",
      "outputs": [
        {
          "internalType": "string",
          "name": "",
          "type": "string"
        }
      ],
      "stateMutability": "view",
      "type": "function"
    },
    {
      "inputs": [],
      "name": "communityName",
      "outputs": [
        {
          "internalType": "string",
          "name": "",
          "type": "string"
        }
      ],
      "stateMutability": "view",
      "type": "function"
    },
    {
      "inputs": [],
      "name": "creationDate",
      "outputs": [
        {
          "internalType": "uint256",
          "name": "",
          "type": "uint256"
        }
      ],
      "stateMutability": "view",
      "type": "function"
    },
    {
      "inputs": [
        {
          "internalType": "uint256",
          "name": "",
          "type": "uint256"
        },
        {
          "internalType": "address",
          "name": "",
          "type": "address"
        }
      ],
      "name": "hasVoted",
      "outputs": [
        {
          "internalType": "bool",
          "name": "",
          "type": "bool"
        }
      ],
      "stateMutability": "view",
      "type": "function"
    },
    {
      "inputs": [
        {
          "internalType": "address",
          "name": "",
          "type": "address"
        }
      ],
      "name": "memberTokens",
      "outputs": [
        {
          "internalType": "uint256",
          "name": "",
          "type": "uint256"
        }
      ],
      "stateMutability": "view",
      "type": "function"
    },
    {
      "inputs": [],
      "name": "owner",
      "outputs": [
        {
          "internalType": "address",
          "name": "",
          "type": "address"
        }
      ],
      "stateMutability": "view",
      "type": "function"
    },
    {
      "inputs": [],
      "name": "presidentName",
      "outputs": [
        {
          "internalType": "string",
          "name": "",
          "type": "string"
        }
      ],
      "stateMutability": "view",
      "type": "function"
    },
    {
      "inputs": [
        {
          "internalType": "uint256",
          "name": "",
          "type": "uint256"
        }
      ],
      "name": "proposals",
      "outputs": [
        {
          "internalType": "string",
          "name": "description",
          "type": "string"
        },
        {
          "internalType": "uint256",
          "name": "voteCount",
          "type": "uint256"
        },
        {
          "internalType": "bool",
          "name": "executed",
          "type": "bool"
        }
      ],
      "stateMutability": "view",
      "type": "function"
    },
    {
      "inputs": [],
      "name": "renounceOwnership",
      "outputs": [],
      "stateMutability": "nonpayable",
      "type": "function"
    },
    {
      "inputs": [
        {
          "internalType": "address",
          "name": "newOwner",
          "type": "address"
        }
      ],
      "name": "transferOwnership",
      "outputs": [],
      "stateMutability": "nonpayable",
      "type": "function"
    },
    {
      "inputs": [
        {
          "internalType": "address",
          "name": "member",
          "type": "address"
        },
        {
          "internalType": "uint256",
          "name": "tokens",
          "type": "uint256"
        }
      ],
      "name": "registerMember",
      "outputs": [],
      "stateMutability": "nonpayable",
      "type": "function"
    },
    {
      "inputs": [
        {
          "internalType": "string",
          "name": "description",
          "type": "string"
        }
      ],
      "name": "createProposal",
      "outputs": [],
      "stateMutability": "nonpayable",
      "type": "function"
    },
    {
      "inputs": [
        {
          "internalType": "uint256",
          "name": "proposalId",
          "type": "uint256"
        },
        {
          "internalType": "uint256",
          "name": "votes",
          "type": "uint256"
        }
      ],
      "name": "voteOnProposal",
      "outputs": [],
      "stateMutability": "nonpayable",
      "type": "function"
    },
    {
      "inputs": [
        {
          "internalType": "uint256",
          "name": "proposalId",
          "type": "uint256"
        }
      ],
      "name": "executeProposal",
      "outputs": [],
      "stateMutability": "nonpayable",
      "type": "function"
    }
  ],
  "bytecode": "0x60806040523480156200001157600080fd5b5060405162001f4c38038062001f4c8339818101604052810190620000379190620003ab565b33600073ffffffffffffffffffffffffffffffffffffffff168173ffffffffffffffffffffffffffffffffffffffff1603620000ad5760006040517f1e4fbdf7000000000000000000000000000000000000000000000000000000008152600401620000a49190620004f4565b60405180910390fd5b620000be816200011960201b60201c565b508460019081620000d0919062000752565b508360029081620000e2919062000752565b508260039081620000f4919062000752565b50816004908162000106919062000752565b5080600581905550505050505062000839565b60008060009054906101000a900473ffffffffffffffffffffffffffffffffffffffff169050816000806101000a81548173ffffffffffffffffffffffffffffffffffffffff021916908373ffffffffffffffffffffffffffffffffffffffff1602179055508173ffffffffffffffffffffffffffffffffffffffff168173ffffffffffffffffffffffffffffffffffffffff167f8be0079c531659141344cd1fd0a4f28419497f9722a3daafe3b4186f6b6457e060405160405180910390a35050565b6000604051905090565b600080fd5b600080fd5b600080fd5b600080fd5b6000601f19601f8301169050919050565b7f4e487b7100000000000000000000000000000000000000000000000000000000600052604160045260246000fd5b6200024682620001fb565b810181811067ffffffffffffffff821117156200026857620002676200020c565b5b80604052505050565b60006200027d620001dd565b90506200028b82826200023b565b919050565b600067ffffffffffffffff821115620002ae57620002ad6200020c565b5b620002b982620001fb565b9050602081019050919050565b60005b83811015620002e6578082015181840152602081019050620002c9565b60008484015250505050565b600062000309620003038462000290565b62000271565b905082815260208101848484011115620003285762000327620001f6565b5b62000335848285620002c6565b509392505050565b600082601f830112620003555762000354620001f1565b5b815162000367848260208601620002f2565b91505092915050565b6000819050919050565b620003858162000370565b81146200039157600080fd5b50565b600081519050620003a5816200037a565b92915050565b600080600080600060a08688031215620003ca57620003c9620001e7565b5b600086015167ffffffffffffffff811115620003eb57620003ea620001ec565b5b620003f9888289016200033d565b955050602086015167ffffffffffffffff8111156200041d576200041c620001ec565b5b6200042b888289016200033d565b945050604086015167ffffffffffffffff8111156200044f576200044e620001ec565b5b6200045d888289016200033d565b935050606086015167ffffffffffffffff811115620004815762000480620001ec565b5b6200048f888289016200033d565b9250506080620004a28882890162000394565b9150509295509295909350565b600073ffffffffffffffffffffffffffffffffffffffff82169050919050565b6000620004dc82620004af565b9050919050565b620004ee81620004cf565b82525050565b60006020820190506200050b6000830184620004e3565b92915050565b600081519050919050565b7f4e487b7100000000000000000000000000000000000000000000000000000000600052602260045260246000fd5b600060028204905060018216806200056457607f821691505b6020821081036200057a57620005796200051c565b5b50919050565b60008190508160005260206000209050919050565b60006020601f8301049050919050565b600082821b905092915050565b600060088302620005e47fffffffffffffffffffffffffffffffffffffffffffffffffffffffffffffffff82620005a5565b620005f08683620005a5565b95508019841693508086168417925050509392505050565b6000819050919050565b6000620006336200062d620006278462000370565b62000608565b62000370565b9050919050565b6000819050919050565b6200064f8362000612565b620006676200065e826200063a565b848454620005b2565b825550505050565b600090565b6200067e6200066f565b6200068b81848462000644565b505050565b5b81811015620006b357620006a760008262000674565b60018101905062000691565b5050565b601f8211156200070257620006cc8162000580565b620006d78462000595565b81016020851015620006e7578190505b620006ff620006f68562000595565b83018262000690565b50505b505050565b600082821c905092915050565b6000620007276000198460080262000707565b1980831691505092915050565b600062000742838362000714565b9150826002028217905092915050565b6200075d8262000511565b67ffffffffffffffff8111156200077957620007786200020c565b5b6200078582546200054b565b62000792828285620006b7565b600060209050601f831160018114620007ca5760008415620007b5578287015190505b620007c1858262000734565b86555062000831565b601f198416620007da8662000580565b60005b828110156200080457848901518255600182019150602085019450602081019050620007dd565b8683101562000824578489015162000820601f89168262000714565b8355505b6001600288020188555050505b505050505050565b61170380620008496000396000f3fe608060405234801561001057600080fd5b50600436106100f55760003560e01c806386e476dd11610097578063c6d572ae11610066578063c6d572ae14610262578063d0590fec14610280578063d2a7ebd11461029e578063f2fde38b146102ba576100f5565b806386e476dd146101d85780638da5cb5b146101f6578063a5c7900e14610214578063a8a23e3914610244576100f5565b806343859632116100d3578063438596321461016657806349c2a1a614610196578063556f6cc0146101b2578063715018a6146101ce576100f5565b8063013cf08b146100fa57806305b344101461012c5780630d61b5191461014a575b600080fd5b610114600480360381019061010f9190610d0e565b6102d6565b60405161012393929190610df5565b60405180910390f35b6101346103a5565b6040516101419190610e33565b60405180910390f35b610164600480360381019061015f9190610d0e565b6103ab565b005b610180600480360381019061017b9190610eac565b61049e565b60405161018d9190610eec565b60405180910390f35b6101b060048036038101906101ab919061103c565b6104cd565b005b6101cc60048036038101906101c79190611085565b6105b4565b005b6101d661080e565b005b6101e0610822565b6040516101ed91906110c5565b60405180910390f35b6101fe6108b0565b60405161020b91906110f6565b60405180910390f35b61022e60048036038101906102299190611111565b6108d9565b60405161023b9190610e33565b60405180910390f35b61024c6108f1565b60405161025991906110c5565b60405180910390f35b61026a61097f565b60405161027791906110c5565b60405180910390f35b610288610a0d565b60405161029591906110c5565b60405180910390f35b6102b860048036038101906102b3919061113e565b610a9b565b005b6102d460048036038101906102cf9190611111565b610aeb565b005b600781815481106102e657600080fd5b9060005260206000209060030201600091509050806000018054610309906111ad565b80601f0160208091040260200160405190810160405280929190818152602001828054610335906111ad565b80156103825780601f1061035757610100808354040283529160200191610382565b820191906000526020600020905b81548152906001019060200180831161036557829003601f168201915b5050505050908060010154908060020160009054906101000a900460ff16905083565b60055481565b6103b3610b71565b600781815481106103c7576103c66111de565b5b906000526020600020906003020160020160009054906101000a900460ff1615610426576040517f08c379a000000000000000000000000000000000000000000000000000000000815260040161041d90611259565b60405180910390fd5b60016007828154811061043c5761043b6111de565b5b906000526020600020906003020160020160006101000a81548160ff0219169083151502179055507f712ae1383f79ac853f8d882153778e0260ef8f03b504e2866e0593e04d2b291f816040516104939190610e33565b60405180910390a150565b60086020528160005260406000206020528060005260406000206000915091509054906101000a900460ff1681565b6104d5610b71565b600760405180606001604052808381526020016000815260200160001515815250908060018154018082558091505060019003906000526020600020906003020160009091909190915060008201518160000190816105349190611425565b506020820151816001015560408201518160020160006101000a81548160ff0219169083151502179055505050600060016007805490506105759190611526565b90507f9c770c289ab5bf7e57cb1d23c8ceae993aea46eb64847072fd3d78ca60d3e43281836040516105a892919061155a565b60405180910390a15050565b80600660003373ffffffffffffffffffffffffffffffffffffffff1673ffffffffffffffffffffffffffffffffffffffff168152602001908152602001600020541015610636576040517f08c379a000000000000000000000000000000000000000000000000000000000815260040161062d906115d6565b60405180910390fd5b6008600083815260200190815260200160002060003373ffffffffffffffffffffffffffffffffffffffff1673ffffffffffffffffffffffffffffffffffffffff16815260200190815260200160002060009054906101000a900460ff16156106d4576040517f08c379a00000000000000000000000000000000000000000000000000000000081526004016106cb90611642565b60405180910390fd5b80600783815481106106e9576106e86111de565b5b906000526020600020906003020160010160008282546107099190611662565b9250508190555060016008600084815260200190815260200160002060003373ffffffffffffffffffffffffffffffffffffffff1673ffffffffffffffffffffffffffffffffffffffff16815260200190815260200160002060006101000a81548160ff02191690831515021790555080600660003373ffffffffffffffffffffffffffffffffffffffff1673ffffffffffffffffffffffffffffffffffffffff16815260200190815260200160002060008282546107c89190611526565b925050819055507f2dc7503cab0c8e53a50e982257f234b59eb2aff2d39dea8763e479a48f3bb22e82338360405161080293929190611696565b60405180910390a15050565b610816610b71565b6108206000610bf8565b565b6002805461082f906111ad565b80601f016020809104026020016040519081016040528092919081815260200182805461085b906111ad565b80156108a85780601f1061087d576101008083540402835291602001916108a8565b820191906000526020600020905b81548152906001019060200180831161088b57829003601f168201915b505050505081565b60008060009054906101000a900473ffffffffffffffffffffffffffffffffffffffff16905090565b60066020528060005260406000206000915090505481565b600480546108fe906111ad565b80601f016020809104026020016040519081016040528092919081815260200182805461092a906111ad565b80156109775780601f1061094c57610100808354040283529160200191610977565b820191906000526020600020905b81548152906001019060200180831161095a57829003601f168201915b505050505081565b6001805461098c906111ad565b80601f01602080910402602001604051908101604052809291908181526020018280546109b8906111ad565b8015610a055780601f106109da57610100808354040283529160200191610a05565b820191906000526020600020905b8154815290600101906020018083116109e857829003601f168201915b505050505081565b60038054610a1a906111ad565b80601f0160208091040260200160405190810160405280929190818152602001828054610a46906111ad565b8015610a935780601f10610a6857610100808354040283529160200191610a93565b820191906000526020600020905b815481529060010190602001808311610a7657829003601f168201915b505050505081565b610aa3610b71565b80600660008473ffffffffffffffffffffffffffffffffffffffff1673ffffffffffffffffffffffffffffffffffffffff168152602001908152602001600020819055505050565b610af3610b71565b600073ffffffffffffffffffffffffffffffffffffffff168173ffffffffffffffffffffffffffffffffffffffff1603610b655760006040517f1e4fbdf7000000000000000000000000000000000000000000000000000000008152600401610b5c91906110f6565b60405180910390fd5b610b6e81610bf8565b50565b610b79610cbc565b73ffffffffffffffffffffffffffffffffffffffff16610b976108b0565b73ffffffffffffffffffffffffffffffffffffffff1614610bf657610bba610cbc565b6040517f118cdaa7000000000000000000000000000000000000000000000000000000008152600401610bed91906110f6565b60405180910390fd5b565b60008060009054906101000a900473ffffffffffffffffffffffffffffffffffffffff169050816000806101000a81548173ffffffffffffffffffffffffffffffffffffffff021916908373ffffffffffffffffffffffffffffffffffffffff1602179055508173ffffffffffffffffffffffffffffffffffffffff168173ffffffffffffffffffffffffffffffffffffffff167f8be0079c531659141344cd1fd0a4f28419497f9722a3daafe3b4186f6b6457e060405160405180910390a35050565b600033905090565b6000604051905090565b600080fd5b600080fd5b6000819050919050565b610ceb81610cd8565b8114610cf657600080fd5b50565b600081359050610d0881610ce2565b92915050565b600060208284031215610d2457610d23610cce565b5b6000610d3284828501610cf9565b91505092915050565b600081519050919050565b600082825260208201905092915050565b60005b83811015610d75578082015181840152602081019050610d5a565b60008484015250505050565b6000601f19601f8301169050919050565b6000610d9d82610d3b565b610da78185610d46565b9350610db7818560208601610d57565b610dc081610d81565b840191505092915050565b610dd481610cd8565b82525050565b60008115159050919050565b610def81610dda565b82525050565b60006060820190508181036000830152610e0f8186610d92565b9050610e1e6020830185610dcb565b610e2b6040830184610de6565b949350505050565b6000602082019050610e486000830184610dcb565b92915050565b600073ffffffffffffffffffffffffffffffffffffffff82169050919050565b6000610e7982610e4e565b9050919050565b610e8981610e6e565b8114610e9457600080fd5b50565b600081359050610ea681610e80565b92915050565b60008060408385031215610ec357610ec2610cce565b5b6000610ed185828601610cf9565b9250506020610ee285828601610e97565b9150509250929050565b6000602082019050610f016000830184610de6565b92915050565b600080fd5b600080fd5b7f4e487b7100000000000000000000000000000000000000000000000000000000600052604160045260246000fd5b610f4982610d81565b810181811067ffffffffffffffff82111715610f6857610f67610f11565b5b80604052505050565b6000610f7b610cc4565b9050610f878282610f40565b919050565b600067ffffffffffffffff821115610fa757610fa6610f11565b5b610fb082610d81565b9050602081019050919050565b82818337600083830152505050565b6000610fdf610fda84610f8c565b610f71565b905082815260208101848484011115610ffb57610ffa610f0c565b5b611006848285610fbd565b509392505050565b600082601f83011261102357611022610f07565b5b8135611033848260208601610fcc565b91505092915050565b60006020828403121561105257611051610cce565b5b600082013567ffffffffffffffff8111156110705761106f610cd3565b5b61107c8482850161100e565b91505092915050565b6000806040838503121561109c5761109b610cce565b5b60006110aa85828601610cf9565b92505060206110bb85828601610cf9565b9150509250929050565b600060208201905081810360008301526110df8184610d92565b905092915050565b6110f081610e6e565b82525050565b600060208201905061110b60008301846110e7565b92915050565b60006020828403121561112757611126610cce565b5b600061113584828501610e97565b91505092915050565b6000806040838503121561115557611154610cce565b5b600061116385828601610e97565b925050602061117485828601610cf9565b9150509250929050565b7f4e487b7100000000000000000000000000000000000000000000000000000000600052602260045260246000fd5b600060028204905060018216806111c557607f821691505b6020821081036111d8576111d761117e565b5b50919050565b7f4e487b7100000000000000000000000000000000000000000000000000000000600052603260045260246000fd5b7f50726f706f73616c20616c726561647920657865637574656400000000000000600082015250565b6000611243601983610d46565b915061124e8261120d565b602082019050919050565b6000602082019050818103600083015261127281611236565b9050919050565b60008190508160005260206000209050919050565b60006020601f8301049050919050565b600082821b905092915050565b6000600883026112db7fffffffffffffffffffffffffffffffffffffffffffffffffffffffffffffffff8261129e565b6112e5868361129e565b95508019841693508086168417925050509392505050565b6000819050919050565b600061132261131d61131884610cd8565b6112fd565b610cd8565b9050919050565b6000819050919050565b61133c83611307565b61135061134882611329565b8484546112ab565b825550505050565b600090565b611365611358565b611370818484611333565b505050565b5b818110156113945761138960008261135d565b600181019050611376565b5050565b601f8211156113d9576113aa81611279565b6113b38461128e565b810160208510156113c2578190505b6113d66113ce8561128e565b830182611375565b50505b505050565b600082821c905092915050565b60006113fc600019846008026113de565b1980831691505092915050565b600061141583836113eb565b9150826002028217905092915050565b61142e82610d3b565b67ffffffffffffffff81111561144757611446610f11565b5b61145182546111ad565b61145c828285611398565b600060209050601f83116001811461148f576000841561147d578287015190505b6114878582611409565b8655506114ef565b601f19841661149d86611279565b60005b828110156114c5578489015182556001820191506020850194506020810190506114a0565b868310156114e257848901516114de601f8916826113eb565b8355505b6001600288020188555050505b505050505050565b7f4e487b7100000000000000000000000000000000000000000000000000000000600052601160045260246000fd5b600061153182610cd8565b915061153c83610cd8565b9250828203905081811115611554576115536114f7565b5b92915050565b600060408201905061156f6000830185610dcb565b81810360208301526115818184610d92565b90509392505050565b7f4e6f7420656e6f75676820746f6b656e7320746f20766f746500000000000000600082015250565b60006115c0601983610d46565b91506115cb8261158a565b602082019050919050565b600060208201905081810360008301526115ef816115b3565b9050919050565b7f416c726561647920766f74656400000000000000000000000000000000000000600082015250565b600061162c600d83610d46565b9150611637826115f6565b602082019050919050565b6000602082019050818103600083015261165b8161161f565b9050919050565b600061166d82610cd8565b915061167883610cd8565b92508282019050808211156116905761168f6114f7565b5b92915050565b60006060820190506116ab6000830186610dcb565b6116b860208301856110e7565b6116c56040830184610dcb565b94935050505056fea26469706673582212205f35390498b0c78df2ffb569f72461042ef20aa5d706b9c4db2b892ed82cfec364736f6c63430008140033",
  "immutableReferences": {},
  "source": "// SPDX-License-Identifier: MIT\npragma solidity 0.8.20;\n\nimport \"@openzeppelin/contracts/access/Ownable.sol\";\nimport \"@openzeppelin/contracts/token/ERC20/ERC20.sol\";\n\n\n // Contrato de la Comunidad DAO Version 1.1\ncontract Community is Ownable(msg.sender) {\n    string public communityName;\n    string public communityAddress;\n    string public presidentName;\n    string public adminName;\n    uint256 public creationDate;\n\n    mapping(address => uint256) public memberTokens;  // Tokens de votacin asignados a cada miembro\n    Proposal[] public proposals; // Lista de propuestas\n    mapping(uint256 => mapping(address => bool)) public hasVoted; // Mapping to track if a member has voted on a proposal\n\n\n    struct Proposal {\n        string description;\n        uint256 voteCount;\n        bool executed;\n    }\n\n    event ProposalCreated(uint256 proposalId, string description);\n    event VoteReceived(uint256 proposalId, address voter, uint256 votes);\n    event ProposalExecuted(uint256 proposalId);\n\n    constructor(\n        string memory _name,\n        string memory _address,\n        string memory _president,\n        string memory _admin,\n        uint256 _creationDate\n    ) {\n        communityName = _name;\n        communityAddress = _address;\n        presidentName = _president;\n        adminName = _admin;\n        creationDate = _creationDate;\n    }\n\n    function registerMember(address member, uint256 tokens) public onlyOwner {\n        memberTokens[member] = tokens;\n    }\n\n    function createProposal(string memory description) public onlyOwner {\n        proposals.push(Proposal({\n            description: description,\n            voteCount: 0,\n            executed: false\n        }));\n\n        uint256 newProposalId = proposals.length - 1;\n        emit ProposalCreated(newProposalId, description);\n    }\n\n    function voteOnProposal(uint256 proposalId, uint256 votes) public {\n        require(memberTokens[msg.sender] >= votes, \"Not enough tokens to vote\");\n        require(!hasVoted[proposalId][msg.sender], \"Already voted\");\n\n        proposals[proposalId].voteCount += votes;\n        hasVoted[proposalId][msg.sender] = true;\n        memberTokens[msg.sender] -= votes;\n\n        emit VoteReceived(proposalId, msg.sender, votes);\n    }\n\n    function executeProposal(uint256 proposalId) public onlyOwner {\n        require(!proposals[proposalId].executed, \"Proposal already executed\");\n        proposals[proposalId].executed = true;\n        // Logic to execute the proposal goes here\n\n        emit ProposalExecuted(proposalId);\n    }\n}\n\n",
  "sourcePath": "/home/ubuntu/Documents/GitHub/mi-dao-dapp/contracts/Community.sol",
  "compiler": {
    "name": "solc",
    "version": "0.8.20+commit.a1b79de6.Emscripten.clang"
  },
  "schemaVersion": "3.4.16",
  "updatedAt": "2024-04-22T00:44:34.685Z",
  "devdoc": {
    "errors": {
      "OwnableInvalidOwner(address)": [
        {
          "details": "The owner is not a valid owner account. (eg. `address(0)`)"
        }
      ],
      "OwnableUnauthorizedAccount(address)": [
        {
          "details": "The caller account is not authorized to perform an operation."
        }
      ]
    },
    "kind": "dev",
    "methods": {
      "owner()": {
        "details": "Returns the address of the current owner."
      },
      "renounceOwnership()": {
        "details": "Leaves the contract without owner. It will not be possible to call `onlyOwner` functions. Can only be called by the current owner. NOTE: Renouncing ownership will leave the contract without an owner, thereby disabling any functionality that is only available to the owner."
      },
      "transferOwnership(address)": {
        "details": "Transfers ownership of the contract to a new account (`newOwner`). Can only be called by the current owner."
      }
    },
    "version": 1
  },
  "userdoc": {
    "kind": "user",
    "methods": {},
    "version": 1
  }
}